{
  "contractName": "election",
  "abi": [
    {
      "inputs": [
        {
          "internalType": "uint256",
          "name": "",
          "type": "uint256"
        }
      ],
      "name": "Candidate",
      "outputs": [
        {
          "internalType": "uint256",
          "name": "id",
          "type": "uint256"
        },
        {
          "internalType": "string",
          "name": "name",
          "type": "string"
        },
        {
          "internalType": "uint256",
          "name": "voteCount",
          "type": "uint256"
        }
      ],
      "stateMutability": "view",
      "type": "function",
      "constant": true
    },
    {
      "inputs": [],
      "name": "candidatesCount",
      "outputs": [
        {
          "internalType": "uint256",
          "name": "",
          "type": "uint256"
        }
      ],
      "stateMutability": "view",
      "type": "function",
      "constant": true
    },
    {
      "inputs": [],
      "name": "Election",
      "outputs": [],
      "stateMutability": "nonpayable",
      "type": "function"
    }
  ],
  "bytecode": "0x608060405234801561001057600080fd5b50610586806100206000396000f3fe608060405234801561001057600080fd5b506004361061005e576000357c0100000000000000000000000000000000000000000000000000000000900480631d6c263c146100635780632d35a8a21461006d578063e2f11b9c1461008b575b600080fd5b61006b6100bd565b005b61007561013b565b604051610082919061039d565b60405180910390f35b6100a560048036038101906100a0919061032c565b610141565b6040516100b4939291906103b8565b60405180910390f35b6100fb6040518060400160405280600b81526020017f43616e64696461746520310000000000000000000000000000000000000000008152506101f3565b6101396040518060400160405280600b81526020017f43616e64696461746520320000000000000000000000000000000000000000008152506101f3565b565b60015481565b600060205280600052604060002060009150905080600001549080600101805461016a9061044f565b80601f01602080910402602001604051908101604052809291908181526020018280546101969061044f565b80156101e35780601f106101b8576101008083540402835291602001916101e3565b820191906000526020600020905b8154815290600101906020018083116101c657829003601f168201915b5050505050908060020154905083565b6001600081548092919061020690610481565b91905055506040518060600160405280600154815260200182815260200160008152506000806001548152602001908152602001600020600082015181600001556020820151816001019080519060200190610263929190610274565b506040820151816002015590505050565b8280546102809061044f565b90600052602060002090601f0160209004810192826102a257600085556102e9565b82601f106102bb57805160ff19168380011785556102e9565b828001600101855582156102e9579182015b828111156102e85782518255916020019190600101906102cd565b5b5090506102f691906102fa565b5090565b5b808211156103135760008160009055506001016102fb565b5090565b60008135905061032681610539565b92915050565b60006020828403121561033e57600080fd5b600061034c84828501610317565b91505092915050565b6000610360826103f6565b61036a8185610401565b935061037a81856020860161041c565b61038381610528565b840191505092915050565b61039781610412565b82525050565b60006020820190506103b2600083018461038e565b92915050565b60006060820190506103cd600083018661038e565b81810360208301526103df8185610355565b90506103ee604083018461038e565b949350505050565b600081519050919050565b600082825260208201905092915050565b6000819050919050565b60005b8381101561043a57808201518184015260208101905061041f565b83811115610449576000848401525b50505050565b6000600282049050600182168061046757607f821691505b6020821081141561047b5761047a6104f9565b5b50919050565b600061048c82610412565b91507fffffffffffffffffffffffffffffffffffffffffffffffffffffffffffffffff8214156104bf576104be6104ca565b5b600182019050919050565b7f4e487b7100000000000000000000000000000000000000000000000000000000600052601160045260246000fd5b7f4e487b7100000000000000000000000000000000000000000000000000000000600052602260045260246000fd5b6000601f19601f8301169050919050565b61054281610412565b811461054d57600080fd5b5056fea26469706673582212207684548e8a1ef37e8f6cdaa9a432072ba38dafe7cd5ae5f5857b456c00e08a0464736f6c63430008000033",
  "immutableReferences": {},
  "source": "// SPDX-License-Identifier: MIT\npragma solidity ^0.8.0;\n\ncontract election{\n    \n    struct candidate{\n        uint id;\n        string name;\n        uint voteCount;\n    }\n\n    mapping(uint=> candidate) public Candidate;\n\n    uint public candidatesCount;\n\n    function Election () public {\n       addCandidate(\"Candidate 1\");\n       addCandidate(\"Candidate 2\");\n    }\n\n    function addCandidate (string memory _name) private { \n        candidatesCount ++;\n        Candidate[candidatesCount]= candidate(candidatesCount, _name,0);\n    }\n}",
  "sourcePath": "/media/champ/DATA/election/contracts/election.sol",
  "compiler": {
    "name": "solc",
    "version": "0.8.0+commit.c7dfd78e.Emscripten.clang"
  },
  "schemaVersion": "3.4.1",
  "updatedAt": "2021-09-04T07:06:58.022Z",
  "networkType": "ethereum",
  "devdoc": {
    "kind": "dev",
    "methods": {},
    "version": 1
  },
  "userdoc": {
    "kind": "user",
    "methods": {},
    "version": 1
  }
}